:020000040800F2
:10000000D00F00203D0200081B0200081D0200085E
:100010002102000825020008290200080000000053
:100020000000000000000000000000002D02000899
:100030002F020008000000005302000855020008CB
:10004000570200085702000857020008570200082C
:100050005702000857020008330200083502000862
:10006000370200083902000857020008570200084A
:1000700057020008570200085702000857020008FC
:1000800057020008570200085702000857020008EC
:100090005702000857020008570200083102000802
:1000A00057020008570200085702000857020008CC
:1000B00057020008570200085702000857020008BC
:1000C00057020008570200085702000857020008AC
:1000D00057020008A3170008B31900089318000876
:1000E000570200085702000857020008570200088C
:1000F000570200085702000857020008570200087C
:10010000570200085702000857020008570200086B
:10011000570200085702000857020008570200085B
:10012000570200085702000857020008570200084B
:1001300000F002F800F042F80AA090E8000C8244B7
:100140008344AAF10107DA4501D100F037F8AFF294
:10015000090EBAE80F0013F0010F18BFFB1A43F0A5
:1001600001031847202D0000402D0000103A24BF45
:1001700078C878C1FAD8520724BF30C830C144BF0C
:1001800004680C607047000000230024002500264E
:10019000103A28BF78C1FBD8520728BF30C148BFEA
:1001A0000B607047642902F00F83732902F02F84DB
:1001B000002070471FB51FBD10B510BD02F042FCF6
:1001C0001146FFF7F7FF00F008F802F060FC03B4F7
:1001D000FFF7F2FF03BC01F085FA10B5482001F0EB
:1001E0001DFA4FF4A06000F037F94FF4E13001F050
:1001F0008CFA00F021FF00F06DFF01F0FAF901F038
:1002000073F901F0B2F800F033FF4FF4E13001F080
:100210001FFC01F05FFF002010BD704700BFFEE72C
:1002200000BFFEE700BFFEE700BFFEE77047704774
:100230007047704770477047704700000948804713
:1002400009480047FEE7FEE7FEE7FEE7FEE7FEE7B8
:10025000FEE7FEE7FEE7FEE704480549054A064BD0
:10026000704700005903000831010008D005002044
:10027000D00F0020D0070020D00700200CB50020B0
:10028000019000906B48006840F480306949086034
:1002900000BF6848006800F4003000900198401CDE
:1002A0000190009818B90198B0F5A06FF1D161489C
:1002B000006810F4003F02D00120009001E000200F
:1002C00000900098012842D15B48006840F010007F
:1002D000594908600846006820F003000860084695
:1002E000006840F002000860524840685149486088
:1002F0000846406848600846406840F480604860AE
:100300000846406820F47C1048600846406840F485
:10031000E81048600846006840F08070086000BF40
:100320004448006810F0007FFAD04248406820F04E
:100330000300404948600846406840F002004860B9
:1003400000BF3C48406800F00C000828F9D10CBD03
:1003500010B5FFF793FF10BD10B53648006840F0A8
:100360000100344908600846406834490840314972
:10037000486008460068324908402E49086008462F
:10038000006820F4802008600846406820F4FE00E1
:1003900048604FF41F008860FFF7DAFF4FF00060FD
:1003A0002849086010BD10B5002100200022214B13
:1003B0005B6803F00C0121B1042906D0082928D17B
:1003C00007E0214B214C236027E01F4B1F4C23608B
:1003D00023E0184B5B6803F47010164B5B6803F462
:1003E0008032022303EB904022B9194B4343174C50
:1003F00023600DE00F4B5B6813F4003F04D0144BF7
:100400004343124C236003E00F4B43430F4C2360E4
:1004100003E00D4B0D4C236000BF00BF054B5B6834
:10042000C3F303130B4CE15C084B1B68CB40074C38
:10043000236010BD00100240002002400000FFF8C1
:10044000FFFFF6FE08ED00E000127A000000002039
:1004500000093D000400002031490143314A116088
:10046000704770B5002100230F22C4780CB32D4CC7
:10047000246804F4E064C4F5E064210AC1F10403D3
:10048000CA40447804FA03F18478144021430901F6
:10049000254C0678A155047804F01F050124AC40D2
:1004A00005786D114FF0E02606EB8505C5F8004193
:1004B00009E0047804F01F050124AC401B4D0678C8
:1004C000761145F8264070BD194A0A400243154B83
:1004D0001B1F1A60704739B1124A121D126802437D
:1004E000104B1B1D1A6006E00E4A121D1268824353
:1004F0000C4B1B1D1A607047042808D14FF0E021F7
:10050000096941F004014FF0E022116107E04FF06A
:10051000E021096921F004014FF0E02211617047E8
:100520000000FA050CED00E000E400E080E100E0EE
:1005300080FFFF1F10B50446CA48844208D101213C
:10054000042000F027FB0021042000F023FB46E0FC
:10055000C548844208D10121082000F01BFB00217E
:10056000082000F017FB3AE0C048844208D101217E
:10057000102000F00FFB0021102000F00BFB2EE0FC
:10058000BB48844208D10121202000F003FB002158
:10059000202000F0FFFA22E0B648844208D1012171
:1005A000402000F0F7FA0021402000F0F3FA16E0B6
:1005B000B148844208D10121802000F0EBFA0021EB
:1005C000802000F0E7FA0AE0AC48844207D101211C
:1005D000801500F0DFFA0021A01500F0DBFA10BD55
:1005E00010B50121084600F0D5FA0021012000F0E5
:1005F000D1FA10BD2DE9F041024600250026002069
:1006000000230024002791F803C00CF00F0591F897
:1006100003C01CF0100F03D091F802C04CEA05058E
:1006200091F800C0BCF1000F31D0146800202BE01D
:100630004FF0010C0CFA00F3B1F800C00CEA03060D
:100640009E4220D183004FF00F0C0CFA03F7BC43FD
:1006500005FA03FC4CEA040491F803C0BCF1280F2E
:1006600006D14FF0010C0CFA00FCC2F814C00AE0ED
:1006700091F803C0BCF1480F05D14FF0010C0CFA02
:1006800000FCC2F810C0401C0828D1D31460B1F897
:1006900000C0BCF1FF0F34DD546800202EE000F1F3
:1006A000080C4FF0010808FA0CF3B1F800C00CEA8E
:1006B00003069E4221D183004FF00F0C0CFA03F782
:1006C000BC4305FA03FC4CEA040491F803C0BCF1F6
:1006D000280F05D100F1080C08FA0CF8C2F81480B4
:1006E00091F803C0BCF1480F07D100F1080C4FF09E
:1006F000010808FA0CF8C2F81080401C0828CED374
:100700005460BDE8F0814FF6FF71018002218170D5
:100710000421C17070470246002093680B4201D04B
:10072000012000E0002070470146886880B27047D1
:1007300002460020D3680B4201D0012000E00020D7
:1007400070470146C86880B27047016170474161D7
:1007500070470AB1016100E041617047C1607047B4
:100760004FF480320A4382618161826182698269C9
:10077000704702460020424B18684FF680731840BD
:1007800040EA021008433E4B186070473D49C8617B
:100790007047F0B50A46002300240021002500F030
:1007A0000046B6F1004F02D1354EF16901E0344EFA
:1007B0007168C0F3034583B200F44016B6F5401FDC
:1007C00008D121F070612E4E766826F070662C4FAD
:1007D0007E6012E000F48016B6F5801F06D1032675
:1007E00006FA05F4A14341F0706106E0460D3601BA
:1007F00003FA06F6B14341F0706122B1460D3601AD
:1008000003FA06F6314300F00046B6F1004F02D17C
:100810001B4EF16101E01A4E7160F0BD30B500224F
:100820008B071C0F0F2303FA04F2154B08338C10AF
:1008300053F824309343124C08348D1044F825307B
:1008400023468C1053F824308C07240F00FA04F44C
:1008500023430B4C08348D1044F8253030BD0A4931
:100860000860704700080140000C01400010014082
:100870000014014000180140001C0140002001400C
:100880000000014000002042DC002042DD480068FA
:1008900040F00100DB49086008464068DA4908403A
:1008A000D849486008460068D8490840D5490860DA
:1008B0000846006820F4802008600846406820F45C
:1008C000FE0048604FF41F0088607047CD490968FA
:1008D00021F48031CB4A11601146096821F480214E
:1008E0001160B0F5803F03D0B0F5802F0ED106E047
:1008F000C449096841F48031C24A116007E0C14926
:10090000096841F4A021BF4A116000E000BF00BFA8
:10091000704710B501460022002300204A11012A29
:1009200002D1B84C236806E0022A02D1B54C236AF2
:1009300001E0B44C636A01F01F02012494401C42A0
:1009400001D0012000E0002010BD38B5002000904B
:100950000024002500BF3120FFF7DBFF054600988B
:10096000401C00900098B0F5A06F01D0002DF2D08F
:100970003120FFF7CEFF08B1012400E0002420461B
:1009800038BD014600209F4A106820F0F80040EA78
:10099000C100106070479E49086070470246002001
:1009A000984B586820F47C1042EA01031843954B99
:1009B0005860704796490866704701460020914A82
:1009C000506820F003000843506070478D4840682D
:1009D00000F00C007047014600208A4A506820F061
:1009E000F00008435060704701460020854A506877
:1009F00020F4E06008435060704701460020814ABF
:100A0000506820F4605040EAC1005060704729B13E
:100A10007C4A527A02437B4B5A7204E0794A527AFA
:100A20008243784B5A7270477A4908607047014692
:100A30000020744A506820F44040084350607047DA
:100A40000021754A11706F4A82F82010012802D0E7
:100A5000042808D103E001216F4A117004E0052148
:100A60006D4A117000E000BF00BF70476B4908601D
:100A700070476449096A0143624A116270476749D5
:100A800044390860704730B500210022002400235B
:100A90005C4D6D6805F00C0121B1042905D00829D1
:100AA00023D105E05E4D056022E05D4D05601FE04D
:100AB000544D6D6805F47012524D6D6805F4803424
:100AC000022505EB92421CB9564D554305600BE0DB
:100AD0004C4D6D6815F4003F03D0524D55430560F1
:100AE00002E04F4D5543056002E04D4D056000BFEB
:100AF00000BF444D6D6805F0F00109094A4D6B5C7B
:100B00000568DD4045603F4D6D6805F4E061090A08
:100B1000454D6B5C4568DD4085603A4D6D6805F478
:100B20006051C90A404D6B5C4568DD40C560354D7C
:100B30006D6805F44041890B3C4D6B5CC568B5FBA5
:100B4000F3F5056130BD29B12E4A526902432D4BA0
:100B50005A6104E02B4A526982432A4B5A6170471A
:100B600029B1284A92690243264B9A6104E0254A3A
:100B700092698243234B9A61704729B1214AD26915
:100B80000243204BDA6104E01E4AD26982431D4BC6
:100B9000DA61704729B11B4AD2680243194BDA6007
:100BA00004E0184AD2688243164BDA60704729B1D4
:100BB000144A12690243134B1A6104E0114A126984
:100BC0008243104B1A6170471449403908607047DE
:100BD0000F49C86470470B49C87170470948406A9B
:100BE00040F0807007494862704701460020054A7E
:100BF00092680A4201D0012000E0002070470149BC
:100C000088727047001002400000FFF8FFFFF6FEF8
:100C100000004242D800424220100240800442427A
:100C200000127A0000093D0014000020240000207A
:100C300010B50446FB48844209D101218803FFF71F
:100C4000A9FF00214FF48040FFF7A4FF32E0F648EF
:100C5000844209D101214804FFF7A9FF00214FF484
:100C60000030FFF7A4FF25E0F048844209D10121BC
:100C70008804FFF79CFF00214FF48020FFF797FFC7
:100C800018E0EB48844209D10121C804FFF78FFF27
:100C900000214FF40020FFF78AFF0BE0E548844273
:100CA00008D101210805FFF782FF00214FF48010D1
:100CB000FFF77DFF10BD2DE9F04786B005460E46D3
:100CC0000024A24600BFA1460027B08900B100BFA2
:100CD0002F462C8A4CF6FF700440F08804432C8287
:100CE000AC894EF6F3100440B0883189084371890D
:100CF00008430443AC81AC8A4FF6FF400440B089FE
:100D00000443AC8201A8FFF7BEFEC648874202D169
:100D1000DDF810A001E0DDF80CA0A88910F4004F68
:100D200008D00AEBCA0000EB0A1031684900B0FB9A
:100D3000F1F807E00AEBCA0000EB0A1031688900FD
:100D4000B0FBF1F86420B8FBF0F004012009642145
:100D500001FB1089A88910F4004F08D0322000EB65
:100D6000C900B0FBF1F000F00700044308E03220B6
:100D700000EB09106421B0FBF1F000F00F00044318
:100D80002C8106B0BDE8F0874FF4165101600021B8
:100D90008180C18001810C214181002181817047C6
:100DA00010B502460020108A4FF2FF0318400B884E
:100DB0004C8823438C882343CC88234318431082D8
:100DC00010BD0021018041808180C180704721B128
:100DD000828942F40052828104E082894DF6FF73D9
:100DE0001A4082817047F0B5034600240026002592
:100DF0000020A1F510676A3F00D100BF1846C1F37B
:100E0000421401F01F06012707FA06F5012C01D153
:100E10000C3004E0022C01D1103000E014301AB183
:100E200007682F43076002E00768AF430760F0BD23
:100E30001AB1838A0B43838202E0838A8B438382C5
:100E40007047028A4FF6F0731A400282028A0A4300
:100E50000282704782894FF2FF731A408281828931
:100E60000A438281704721B1828942F00202828165
:100E700004E082894FF6FD731A4082817047028A2E
:100E80004FF6DF731A400282028A0A4302827047D9
:100E900021B1028A42F48042028204E0028A4BF6C7
:100EA000FF731A4002827047C1F3080282807047C4
:100EB00001468888C0F308007047818941F001012C
:100EC00081817047028BD2B20283028B42EA0122F7
:100ED00002837047028B02F47F420283028B0A4333
:100EE0000283704721B1828A42F02002828204E0AC
:100EF000828A4FF6DF731A408282704721B1828A5C
:100F000042F01002828204E0828A4FF6EF731A40A8
:100F10008282704721B1828A42F00802828204E014
:100F2000828A4FF6F7731A408282704721B1828914
:100F300042F40042828103E08289C2F30E02828180
:100F4000704721B1828A42F40062828204E0828A80
:100F50004FF2FF731A4082827047828A4FF6FB730A
:100F60001A408282828A0A438282704721B1828A31
:100F700042F00202828204E0828A4FF6FD731A4038
:100F80008282704702460020B1F5007F00D100BF89
:100F900013880B4201D0012000E00020704701F4CB
:100FA0000072B2F5007F00D100BFCA4302807047D3
:100FB00070B502460024002300250020A1F510662C
:100FC0006A3E00D100BFC1F3421501F01F030126A4
:100FD00006FA03F3012D02D19689334006E0022D73
:100FE00002D1168A334001E0968A33400C12012662
:100FF00006FA04F41688344013B10CB1012000E065
:10100000002070BD10B500220023A1F510646A3CD9
:1010100000D100BF0A1201249440A3B2DC43048033
:1010200010BD00000038014000440040004800406E
:10103000004C00400050004008B501211020FFF78F
:101040008FFD4FF6FF70ADF8000010208DF8030003
:1010500003208DF8020069460448FFF7CBFA4FF6EB
:10106000FF710248FFF771FB08BD0000001001404E
:1010700008B501210820FFF773FD2020ADF800001E
:1010800010208DF8030003208DF8020069461048F7
:10109000FFF7B0FA20210E48FFF759FB08BD10B545
:1010A00064240FE020210A48FFF74FFB4FF4FA7049
:1010B00000F0CEFA20210648FFF749FB4FF4FA7002
:1010C00000F0C6FA2000A4F10101CCB2EAD110BDB3
:1010D000000C014008B501214420FFF741FD01202B
:1010E000ADF8000028208DF8030069463648FFF768
:1010F00081FA01213448FFF72AFB1C20ADF80000DB
:1011000048208DF8030069463048FFF773FA08BDA0
:1011100010B5044614B101202D4908702C48007800
:10112000002836D001212848FFF7F5FA01280ED013
:1011300004212648FFF7EFFA48B108212348FFF7BA
:10114000EAFA20B110212148FFF7E5FA08BB0A208E
:1011500000F0A1FA00201E49087001211A48FFF78B
:10116000DAFA012800D110BD04211848FFF7D3FA9C
:1011700008B90220F7E708211448FFF7CCFA08B9AC
:101180000320F0E710211148FFF7C5FAD0B9042079
:10119000E9E701210C48FFF7BEFA98B904210B4892
:1011A000FFF7B9FA01280DD108210848FFF7B3FA73
:1011B000012807D110210548FFF7ADFA012801D118
:1011C000034908700020CEE70008014000180140E4
:1011D0002800002010B59548406820F470409349DD
:1011E00048600846406840F44050486000209049FC
:1011F000086040F2EE2000F02BFA01208D49C1F882
:10120000AC010F2000F024FA10BD10B5002487486F
:10121000406820F47040854948600846406840F4C2
:101220000040486004E0601CC4B2012000F010FAE5
:101230008148006808B1C82CF5DBC82C01DB01200F
:1012400010BD002404E0601CC4B2012000F000FACC
:101250007948006808B9F02CF5DBF02C01DB01209F
:10126000EEE70020ECE710B57048406820F47040CD
:101270006E4948600846406840F44050486000208D
:101280006B4908604FF0020000F0E2F90120694963
:10129000C1F8AC016548406820F47040634948607B
:1012A0000846406840F4004048600C2000F0D0F947
:1012B0006148006808B1012400E00024322000F0F9
:1012C000C7F9204610BD70B50026012508E0FFF7DC
:1012D000CAFF0446E00140EA6600C6B2681CC5B217
:1012E000082DF4DD304670BD70B504464F484068A7
:1012F00020F470404D4948600846406840F4405032
:101300004860012522E004F00106641076B1002057
:10131000474908604FF0020000F09AF90120454962
:10132000C1F8AC013C2000F093F90DE000204049E9
:1013300008604FF03C0000F08BF901203D49C1F8F6
:10134000AC01022000F084F9681CC5B2082DDADD7A
:1013500070BD10B5FFF73EFFFFF757FFCC20FFF73A
:10136000C3FF4420FFF7C0FF10BD08B501210802EC
:10137000FFF7F6FB4FF40060ADF8000010208DF889
:10138000030003208DF8020069462848FFF732F970
:101390004FF400612548FFF7D8F9FFF71BFFFFF76F
:1013A00034FF08BD2DE9F84FFFF7D3FFFFF712FF19
:1013B000FFF72BFFCC20FFF797FFBE20FFF794FF2E
:1013C000FFF781FF8346FFF77EFF0446072C08DD09
:1013D000E043C4B26FEA0B0000F0FF0B4FF0000ACD
:1013E00001E04FF0010AA1464FEA09200FFA80F907
:1013F00009EB0B000FFA80F9484601F0ADFC0090B4
:1014000001F07EFC074600220C4B01F07BFB0546F9
:1014100001F048FB0FFA80F9BAF1000F02D04846FC
:10142000BDE8F88FC9F1000000B2F9E700200140E3
:10143000AC012442000024422C0124420000E43F7D
:1014400008B54FF40060ADF8000048208DF80300A7
:1014500069466348FFF7CEF808BD10B50024FFF7D2
:10146000EFFF04E0601CC4B2012000F0F1F85D4819
:10147000006808B1642CF5DB642C01DB012010BD91
:10148000002404E0601CC4B2012000F0E1F85548DB
:10149000006808B9642CF5DB642C01DB0120EEE761
:1014A0000020ECE708B54FF40060ADF80000102014
:1014B0008DF8030003208DF8020069464848FFF7C5
:1014C00099F808BD10B5FFF7EDFF00204649086008
:1014D0004FF0140000F0DFF801204449C1F8AC01DE
:1014E0001E2000F0B5F810BD08B501210802FFF775
:1014F00037FB4FF40060ADF8000010208DF80300BA
:1015000003208DF8020069463548FFF773F84FF461
:1015100000613348FFF719F9FFF7D4FFFFF79DFF8C
:1015200008BD10B5002404E0601CC4B2012000F026
:101530008FF82C48006808B1642CF5DB002404E027
:10154000601CC4B2012000F083F82648006808B986
:10155000642CF5DB282000F07BF82248006808B1F5
:10156000012010BD0020FCE770B50024002506E036
:101570006006040EFFF7D5FF0443681CC5B2082DB2
:10158000F6DB204670BD7CB505460E46FFF79AFF98
:10159000FFF763FFF8B9002405E0FFF7E5FF0DF85A
:1015A0000400601CC4B2052CF7DB9DF800009DF818
:1015B000011008449DF8021008449DF803100844E7
:1015C0009DF80410884208D19DF8000030709DF805
:1015D0000200287001E001207CBD0020FCE7000033
:1015E000002001402C012442AC012442000024428E
:1015F000704708B501212020FFF7B2FA0720ADF8A7
:10160000000048208DF8030003208DF80200694691
:101610000148FEF7EFFF08BD0014014010B5044675
:101620006FF00400FEF768FFE11704EB5171C1F39E
:10163000C7012A4A11701046007800EB4001C1EB47
:10164000C0104FF6FF7101EAC0002549088010BDA7
:101650000146224A12784A434FF0E0235A610022A1
:101660009A611A46126942F001021A6100BF4FF0F6
:10167000E022106910F0010F02D010F4803FF6D084
:101680004FF0E022126922F001024FF0E0231A61CC
:1016900000229A6170470146114A12884A434FF06E
:1016A000E0235A6100229A611A46126942F001024F
:1016B0001A6100BF4FF0E022106910F0010F02D054
:1016C00010F4803FF6D04FF0E022126922F00102C0
:1016D0004FF0E0231A6100229A6170472A0000202F
:1016E0002C000020014600BF704770B504460D462F
:1016F000E1B23C48FFF7D8FB00BF80213948FFF733
:1017000041FC0028F9D0204670BD10B586B00446D3
:10171000012144F20400FFF723FA4FF40070ADF802
:10172000140003208DF8160018208DF8170005A965
:101730002D48FEF75FFF4FF48060ADF814000420E1
:101740008DF8170005A92848FEF754FF25208DF8CD
:10175000000003208DF801008DF8020001208DF8B3
:1017600003006846FEF77DFE01940020ADF80800F6
:10177000ADF80A00ADF80C00ADF810000C20ADF883
:101780000E0001A91748FFF796FA012240F22551F1
:101790001448FFF728FB01211248FFF718FB06B099
:1017A00010BD10B540F225510E48FFF701FCC0B145
:1017B0000C48FFF77DFBC4B20C480D49098844541E
:1017C0000B480088401C0A49088008460088C72842
:1017D00001DD002008800648008840F400400449EC
:1017E000088010BD00380140000801403C00002086
:1017F0003000002010B586B0044601218804FFF7B0
:10180000BCF901210820FFF7ABF94FF48060ADF877
:10181000140003208DF8160018208DF8170005A974
:10182000F748FEF7E7FE4FF40060ADF8140004201F
:101830008DF8170005A9F248FEF7DCFE27208DF889
:10184000000000208DF801008DF8020001208DF8C5
:1018500003006846FEF705FE01940020ADF808007D
:10186000ADF80A00ADF80C00ADF810000C20ADF892
:101870000E0001A9E348FFF71EFA012240F22551AC
:10188000E048FFF7B0FA0121DE48FFF7A0FA06B002
:1018900010BD10B540F22551DA48FFF789FBD8B1E9
:1018A000D848FFF705FBC4B2D748B0F80004C0F32E
:1018B0000E0040F2FF3188420EDAD349B1F800142D
:1018C000C1F30E00411CD04AB2F8002461F30E02AD
:1018D000CD49A1F800240C5440F22441C948FFF737
:1018E00067FB012817D1C848B0F8000420F4004075
:1018F00000F50040C449A1F80004C248FFF7D8FA37
:10190000C4B2C2A1C04800F09BFF08B1012000E0B2
:101910000020C149087010BD10B586B004460121F1
:101920004804FFF72AF901210420FFF719F90420E0
:10193000ADF8140003208DF8160018208DF817005C
:1019400005A9B648FEF756FE0820ADF8140004209D
:101950008DF8170005A9B148FEF74CFE26208DF83A
:10196000000000208DF801008DF8020001208DF8A4
:1019700003006846FEF775FD01940020ADF80800ED
:10198000ADF80A00ADF80C00ADF810000C20ADF871
:101990000E0001A9A248FFF78EF9012240F225515D
:1019A0009F48FFF720FA01219D48FFF710FA06B083
:1019B00010BD10B540F225519948FFF7F9FA38B338
:1019C0009748FFF775FAC4B28F48B0F80004C0F327
:1019D0000E0040F2FF3188420EDA8B49B1F8001454
:1019E000C1F30E00411C884AB2F8002461F30E02D4
:1019F0008549A1F800240C54782C09D18248B0F80C
:101A0000000420F4004000F500407F49A1F80004E4
:101A100040F224418248FFF7CBFA012817D17A48D7
:101A2000B0F8000420F4004000F500407649A1F829
:101A300000047B48FFF73CFAC4B274A1724800F07E
:101A4000FFFE08B1012000E000207349087010BDBE
:101A500038B5044601214FF4A070FFF781F840200B
:101A6000ADF8000010208DF8030003208DF802006F
:101A700069466C48FEF7BEFD8020ADF8000069465F
:101A80006948FEF7B7FD2046FFF746FF402165484D
:101A9000FEF75BFE80216448FEF759FE38BD2DE954
:101AA000F04106460C4615461F465748B0F800045C
:101AB000C10BC9035448A0F8001432465BA1584832
:101AC00000F081FD1CB915B90120BDE8F081B8B264
:101AD000FFF7E1FD00214C48B0F80004C0F30E0010
:101AE000494A1154114653A000F0F0FDB4B1ADB114
:101AF0002146454800F0A4FE08B1012000E0002086
:101B000040B92946404800F09BFE08B1012000E0A2
:101B1000002008B10120D8E70020D6E744B12146D3
:101B2000394800F08DFE08B10120CEE70020CCE757
:101B30002946354800F084FE08B10120C5E70020A1
:101B4000C3E710B540213748FEF701FE4FF4FA70A5
:101B5000FFF7A1FD40213348FEF7F7FD10BD10B59A
:101B6000002440212F48FEF7F0FD4FF47A70FFF774
:101B700092FD0CE04FF4FA7300222FA12FA0FFF783
:101B80008EFF00B110BDFFF7DCFF601CC4B20A2C51
:101B9000F0DB00BFF6E710B5044624B1012C0AD0F3
:101BA000022C18D10FE040F6C41325A222A127A0D1
:101BB000FFF775FF10BD40F6C41321A21EA126A099
:101BC000FFF76DFFF6E740F6C4131DA21AA125A08A
:101BD000FFF765FFEEE70020ECE730B59FB0044665
:101BE0000D462B46224622A101A800F07BFD41F2C2
:101BF0008833002210A101A8FFF751FF1FB030BDAC
:101C0000000C01400048004004010020434C4F53A9
:101C100045440D0A00000000380000200008014083
:101C200000440040001801400020014025730D0AC7
:101C300000000000257300004F4B000041540000DD
:101C40006E6F206368616E676500000041542B432E
:101C5000574D4F44453D310041542B43574D4F4460
:101C6000453D320041542B43574D4F44453D3300D1
:101C700041542B43574A41503D222573222C2225A3
:101C80007322000010B586B004460CB1012000E0BC
:101C900000200246ABA101A800F024FD4FF4FA7326
:101CA0000022AFF26C0101A8FFF7F9FE06B010BDEB
:101CB000F0B5B9B006460F4614461D46642120A86B
:101CC00000F0EFFD16B1012E10D107E03B46A1A2B6
:101CD000A1A120A8009400F005FD08E03B46A2A2C7
:101CE0009DA120A8009400F0FDFC00E000BF00BF13
:101CF000052D06DA20AB2A469CA102A800F0F2FCD2
:101D000004E020AA9EA102A800F0ECFC4FF47A6344
:101D10009FA2AFF2DC0102A8FFF7C1FE39B0F0BD0F
:101D200010B54FF4FA730022AFF2F4019CA0FFF754
:101D3000B6FE08B9002010BD4FF4FA739CA2AFF2B2
:101D400008119CA0FFF7ABFEF5E72DE9F041A0B02C
:101D500007460C4615461E464FF0000898A09AA369
:101D60007CA29DA1009002A800F0BCFC4FF47A7305
:101D70000022AFF23C1102A8FFF791FE3FB12246CC
:101D800082A19D4800F01FFC4FF001081CE0052EC9
:101D900006DAAB1C324699A11BA800F0A3FC04E0B4
:101DA000AA1C9BA11BA800F09DFC4FF47A73002293
:101DB0009BA11BA8FFF773FE4FF47A73002299A131
:101DC0002046FFF76CFE8046404620B0BDE8F0811B
:101DD00010B54FF47A70FFF75EFC94A1864800F0CE
:101DE000F2FB4FF4FA70FFF756FC10BD10B54FF43C
:101DF000FA730022AFF2C0118DA0FFF750FEA0B120
:101E00008FA1924800F01CFD08B1022010BD90A1E6
:101E10008E4800F015FD08B10320F7E78FA18B482D
:101E200000F00EFD08B10420F0E70020EEE710B549
:101E300088B0044622468CA1684600F053FC41F26B
:101E400088330022AFF210216846FFF728FE10B158
:101E5000012008B010BD0020FBE770B5A0B004461B
:101E60000D4616462B46224683A102A8009600F096
:101E700039FC4FF47A730022AFF2442102A8FFF735
:101E80000EFE20B070BD70B5BCB004460D461646BF
:101E90000CB32B4601227EA11EA800F023FC324683
:101EA00080A1684600F01EFC4FF4FA730022AFF2E6
:101EB00078211EA8FFF7F3FD58B14FF4FA73002202
:101EC000AFF28C216846FFF7EAFD10B101203CB06B
:101ED00070BD0020FBE72B4600226DA11EA800F07C
:101EE00001FC4FF4FA730022AFF2B4211EA8FFF7F1
:101EF000D6FDECE72DE9F04105460F464FF4FA73A5
:101F00000022AFF2CC216BA0FFF7C9FD6CA14F48B6
:101F100000F096FC06460EB1B61D02E00020BDE8BA
:101F2000F081002409E0305D2855285D222802D187
:101F30000020285503E0601CC4B2BC42F3DB00BFA4
:101F40000120ECE741542B4349504D55583D256441
:101F50000000000054435000222573222C222573D8
:101F6000222C2573000000005544500041542B439F
:101F7000495053544152543D25642C2573000000B0
:101F800041542B43495053544152543D2573000052
:101F9000414C5245415920434F4E4E454354000059
:101FA00041542B4349504D4F44453D310000000002
:101FB0003E00000041542B43495053454E4400001D
:101FC00035303030000000003139322E3136382EB5
:101FD0003132332E3639000041542B43495053548B
:101FE0004152543D302C222573222C222573222C61
:101FF00025730D0A000000000044004041542B43AB
:10200000495053454E443D25642C25640000000092
:1020100041542B43495053454E443D256400000034
:102020003E20000053454E44204F4B002B2B2B00ED
:1020300041542B4349505354415455530000000020
:102040005354415455533A320D0A00000401002004
:102050005354415455533A330D0A000053544154DC
:1020600055533A340D0A000041542B434950415016
:102070003D2225732200000041542B435753415009
:102080003D222573222C222573222C312C2564001D
:1020900041542B4349505345525645523D25642CDB
:1020A0002573000041542B43495053544F3D257331
:1020B0000000000041542B434946535200000000E9
:1020C000415049502C2200001CB5694601A8FFF779
:1020D0005AFA1CBDB6B064211BA800F0E2FB00BF99
:1020E000642102A800F0DDFB4FF000080126012763
:1020F000B1464FF0000ACEA000F0E8FA8021D548A2
:10210000FEF723FBFFF72BFD0120FFF744FD00BF87
:10211000D1A0FFF78CFE0028FAD000BF0022D2A188
:10212000D4A0FFF79AFE0028F8D00120FFF7AAFDFF
:1021300000BFD3A2D4A10120FFF7A5FE0028F8D04C
:1021400014211BA8FFF7D6FECFA31BAAC9A1D04814
:1021500000F0BCFACF48B0F80004C10BC903CD4869
:10216000A0F80014B0F8000420F40041C948A0F819
:1021700000145CE1C748B0F80004C00B78D000221E
:1021800040F22551C448FEF72EFE0021C148B0F8A8
:102190000004C0F30E00BF4A115440F22551BF485D
:1021A000FEF730FFBEA1BB4800F04AFB04000CD094
:1021B0006079303800F0FF0BBA48006808B9012098
:1021C00000E00020B749086076E0B7A1B14800F010
:1021D00037FB04000ED06079303800F0FF0B8AF036
:1021E000010AB248006808B9012000E00020AF49A8
:1021F000086061E0AEA1A74800F022FB040006D011
:102200006079303800F0FF0BFEF749FF54E0A9A1D8
:10221000A04800F015FB04001DD06079303800F0B4
:10222000FF0B34A935A8FFF7AEF99DF8D0309DF823
:10223000D420A1A102A800F055FA02A800F012FBD8
:102240005B46024602A901900020FFF77EFD00B325
:10225000FEF725FF30E09AA18E4800F0F1FA040065
:1022600009D06079303800F0FF0B16B9012623E061
:1022700037E0002620E093A1864800F0E1FA040050
:1022800008D06079303800F0FF0B0FB9012713E058
:10229000002711E08CA17F4800F0D2FA04000BD097
:1022A0006079303800F0FF0BB9F1000F02D14FF028
:1022B000010901E04FF000097648B0F80004C10BB5
:1022C000C9037448A0F80014B0F8000420F40041D9
:1022D0007048A0F80014012240F225516E48FEF724
:1022E00082FD0EB307B302217848FEF714FA0128E5
:1022F0001AD101217548FEF70EFAA8B96B4800689B
:10230000012811D1002069490860804670A102A807
:1023100000F0E8F902A800F0A5FA5B46024602A91F
:1023200001900020FFF711FDDEB1D7B90121674808
:10233000FEF7F1F9A8B95D480068012811D1002025
:102340005A490860804662A102A800F0CBF902A8B1
:1023500000F088FA5B46024602A901900020FFF7D0
:10236000F4FCE6B9DFB102215848FEF7D4F90128A0
:1023700015D14E480068012811D100204B49086052
:10238000804657A102A800F0ADF902A800F06AFA51
:102390005B46024602A901900020FFF7D6FCBAF185
:1023A000000F0CD14148006848B908F101085148B4
:1023B000804504DB4FF0000801203C490860B9F17A
:1023C000000F0CD004214148FEF7A5F9012803D1E4
:1023D00000204949086002E0012047490860474859
:1023E000007820B3FFF7F4FC00BFFFF7FFFC0546C1
:1023F000002DFAD0042D15D141A000F067F900BFDF
:1024000048A14BA0FFF7E9FB0028F9D000BF052346
:102410001DA249A10020FFF74BFC0028F7D04AA0DD
:1024200000F054F900BFFFF77BFC0028FBD0A1E6C9
:102430000D0AD5FDD4DAC5E4D6C34553503832363B
:1024400036C7EBC4CDD0C4B5C8B4FD2E2E2E0D0AB0
:1024500000000000002001403139322E3136382E84
:102460003132332E3136390077696C6466697265B2
:102470000000000042696E6768756F4C696E6B0002
:1024800031383030000000003830383000000000B3
:10249000142E0008040100200044004000480040C1
:1024A000317800008001224232780000840122420B
:1024B0003478000033780000256420256400000093
:1024C00035780000367800003778000000140140AD
:1024D000766F696365206E6F74696679000000002D
:1024E0006775616E677A68616F206E6F746966796F
:1024F0000000000080841E00880122423800002075
:102500000D0AC7EBC9D4B5C8A3ACD5FDD4DAD6D86B
:10251000C1ACC8C8B5E3BACDB7FECEF1C6F72E2E12
:102520002E0D0A003230313431393130360000009E
:1025300031323334353600003139322E3136382ECF
:10254000312E3130330000000D0AD6D8C1ACC8C8D6
:10255000B5E3BACDB7FECEF1C6F7B3C9B9A60D0A39
:1025600000000000F0B503460D4616460027294638
:102570000A2E03D0002008702846F0BD33B9302061
:1025800001F8010B002008702846F6E7002B03DA5B
:102590002D2001F8010B5B4242F210720DE093FB1B
:1025A000F2F404B937B104F1300001F8010B04FB77
:1025B000123301270A2092FBF0F2002AEFDC002000
:1025C00008702846D9E70FB470B586B006460CA847
:1025D000019073E00B9800785C281CD10B98401C8C
:1025E0000B9000786E2809D072280FD10D2130464B
:1025F000FEF75AFC0B98401C0B900BE00A2130466A
:10260000FEF752FC0B98401C0B9003E00B98401C0B
:102610000B9000BF4BE00B980078252840D10B9819
:10262000401C0B900078642818D0732833D101988F
:1026300010C801900BE021783046FEF735FC00BF52
:1026400080213046FEF79EFC0028F9D0641C2078DB
:102650000028F0D10B98401C0B9020E0019820C876
:1026600001900A2202A92846FFF77CFF02AC0BE08A
:1026700021783046FEF718FC00BF80213046FEF777
:1026800081FC0028F9D0641C20780028F0D10B9838
:10269000401C0B9003E00B98401C0B9000BF06E021
:1026A0000B9810F8011B0B903046FEF7FDFB00BFA6
:1026B00080213046FEF766FC0028F9D00B980078A0
:1026C000002887D106B070BC5DF814FB0FB4044934
:1026D00010B503AA029800F09FF910BC5DF814FB36
:1026E000340000200FB41CB5074B06AA7B44694692
:1026F0000090059800F061F90020694600F070F93B
:102700001CBC5DF814FB0000F10200002DE9F04153
:102710000E460446002020622046E168884730B318
:10272000252805D0D4E901219047206A401CF2E712
:10273000E168204600278847050018D0A5F1410030
:10274000192802D820354FF4006732462946204622
:102750002760FDF727FD40B1012804D0F61D26F0C3
:1027600007060836D8E7361DD6E72846DAE7206A96
:10277000BDE8F08170B50C460546012A05D02878E1
:10278000800600D5EA69002302E0012305E05B1C16
:10279000934202D2E05C0028F9D1A869E618C01A79
:1027A000A861286A184428622846AFF3008004E034
:1027B000D5E9012114F8010B9047B442F8D328461B
:1027C000AFF3008070BD00002DE9F0410646002403
:1027D00010687529314616A511D0AFF30080002886
:1027E00003DAC0F1000013A507E031688A0701D5BC
:1027F00011A502E0490704D510A5012401E0AFF3BB
:10280000008000210A2306F1240707E0B0FBF3F261
:1028100003FB1200303078541046491C0028F5D1D3
:1028200023462A463046BDE8F04100F064B8000077
:10283000000000002D0000002B0000002000000020
:1028400030B505460B462A4613F8014B12F8010B2A
:1028500008B1A042F8D01CB1002802D06D1CF1E7ED
:10286000284630BD10B5431C02E010F8011B71B1C1
:102870008107FAD14FF0013202C88C1A8C4314EA56
:10288000C211F9D0C01A0A0603D0C01E10BDC01A6A
:1028900010BD0A0401D0801E10BD0902FCD0401EEC
:1028A00010BD4FF0000200B51346944696462039FD
:1028B00022BFA0E80C50A0E80C50B1F12001BFF4F9
:1028C000F7AF090728BFA0E80C5048BF0CC05DF85F
:1028D00004EB890028BF40F8042B08BF704748BFAD
:1028E00020F8022B11F0804F18BF00F8012B704721
:1028F0007047704770472DE9F0470D46994692465C
:10290000044600F124080168880604D5E06921F036
:102910001001216000E00120A84202DDA0EB0507C4
:1029200000E00027A16907EB050202EB0900A1EB1B
:102930000000A0612078C00602D42046AFF30080DA
:10294000002608E0D4E901211AF806009047206A21
:10295000401C761C20624E45F4DB2078C0060AD568
:102960002046AFF3008006E0D4E9012130209047F3
:10297000206A401C2062381EA7F10107F4DC07E042
:10298000D4E9012118F805009047206A401C206214
:10299000281EA5F10105F3DC2046AFF30080207866
:1029A000000602D50220BDE8F0870120FBE7000009
:1029B00001694A1C02610878704700B58FB0CDE903
:1029C00001310021059105497944CDE903101146F3
:1029D0006846FFF79BFE0FB000BD0000E5FFFFFF5C
:1029E0000A6802F8010B0A60704710B5436913B119
:1029F000AFF3008001E0FFF7BDFE012010BD1278AB
:102A000000F124010A7000224A700122EDE71168EA
:102A10004FF0FF32E9E70000074B70B50D467B44ED
:102A2000FFF7CBFF0446284600F008F810B14FF03E
:102A3000FF3070BD204670BDC9ECFFFF007B00F089
:102A400080007047754600F029F8AE4605006946DB
:102A5000534620F00700854618B020B5FDF7FCFB73
:102A6000BDE820404FF000064FF000074FF000088F
:102A70004FF0000B21F00701AC46ACE8C009ACE810
:102A8000C009ACE8C009ACE8C0098D4670470446EF
:102A9000AFF300802046FDF79AFB00000048704726
:102AA0006C0500204FEA41034FEA5353A3F58063BE
:102AB000D3F11E03C8BFD3F1210C0CDD4FF000424F
:102AC00042EAC12242EA505232FA03FC8CEAE17C2B
:102AD000ACEBE1707047102BC4BF0020704703F5CA
:102AE000787CBCF1FF3F04D06FF0004282EA210005
:102AF000704770B500F0B0F849922480002070470C
:102B0000F2E70000DFF848C170B51CEA111E1EBFD5
:102B10001CEA13159EEA0C0F95EA0C0F00F06F806B
:102B200081EA030423EA4C134EEAD47E21EA4C11D5
:102B300041F4801143F48013AE44A1FB024CA0FB8E
:102B40000365AEF17F7E361955EB0C05A1FB034CF6
:102B50004CF10003A0FB021C16EB0C06654153F17F
:102B60000003094218BF46F0010613F4007F0BD1A1
:102B70004FEA03314FEA0530340341EA155140EA88
:102B800016506FF003020AE04FEAC3214FEAC52056
:102B9000F40241EA555140EA56506FF0020202EB4E
:102BA0002E4201EB025585EACE710AD05FEA440C51
:102BB00018BF24F0004450F1000041F1000120EA68
:102BC000D47040F2FE7C624500D270BDA84214BFB2
:102BD0004FF080444FF04044002E08BF0024BEF167
:102BE000806FA8BFA1F1C041BDE8704080F2828033
:102BF0004FF0000001F1C04101F0004170479EEA32
:102C00000C0F0CEA131518BF95EA0C0F06D04FF005
:102C1000000081EA030E0EF0004170BD00F01CF8C8
:102C20008900013E00F007B800F009B84FEA430CF4
:102C30005FEA5C5C08D081EA030100F05BB84FEA10
:102C4000410C5FEA5C5CF6D14FF00000014970472F
:102C50000000FF070000F87F0EF1020E2EF0030EB9
:102C60005EF8046B364205D4012A43EB030515F5E3
:102C7000001F12D8012841EB010C1CF5001F0CD8D5
:102C80000ED14FEAD17C15F5001F0CEB4C0C0CF16A
:102C9000020C08BF4CEBD37C04E04FF0080C01E0C1
:102CA0004FEAD37C0CEB4C0526FA05F606F0070636
:102CB000B6F1040C06D20EEB860CBDE870404CF069
:102CC000010C6047DFE80CF0090B02024FF00041F5
:102CD0004FF00000A1F5002170BD194610460128F3
:102CE00051EB010418BFD4F5001484BF002001F09B
:102CF000004170BD0808A0F500114FEA310170478E
:102D000043004FEAD30C4FEA3C0C43401FBF40073F
:102D10000CF1605113F0FE4F70471CF0006F03D1AF
:102D200000200CF0004170470CF0004343EA507063
:102D300010B540EACC0000F027F800BF0000009278
:102D40004FEA0001FFF7D6BF4FF000414FF00000FF
:102D5000A1F500217047000010F0004148BF40423B
:102D6000B0FA80F310FA03F2C3F19D030BD051EADD
:102D7000C35101EB1220530638BF704700F1010028
:102D800008BF20F0010070470EF1020E2EF0030E76
:102D90005EF8044B244204D44FEA4102B2F17F4F63
:102DA00011D84FEA4003B3F17F4F0CD80ED14FEA50
:102DB000D07CB2F17F4F0CEB4C0C0CF1020C08BF35
:102DC0004CEBD17C04E04FF0080C01E04FEAD17CE1
:102DD0000CEB4C0324FA03F404F00704B4F1040CE4
:102DE00006D20EEB840CBDE810404CF0010C60479D
:102DF000DFE80CF0070802024FF00040A0F5800069
:102E000010BD0846420018BFD2F1807288BF00F0A2
:102E1000004010BD0D0AB1BEC4A3BFE957494649E1
:102E2000CEAA2573A3ACC3DCC2EBBFAAB7C50D0AFB
:102E3000415020495020CEAAA3BA2573A3ACBFAA03
:102E4000C6F4B5C4B6CBBFDACEAAA3BA25730D0AB1
:102E5000CAD6BBFACDF8C2E7D6FACAD6C1ACBDD342
:102E6000B8C320495020BACDB6CBBFDAA3ACD7EE59
:102E7000B6E0BFC9C1ACBDD335B8F6BFCDBBA7B6B0
:102E8000CB0D0A00A42E0008000000203C0000002A
:102E90006C010008E02E00083C000020940F0000A8
:102EA0008801000800A24A040000000000000000A1
:102EB00001020304060708090000000001020304E0
:102EC00001020304060708090204060801000000C5
:102ED00000000000000000000000000000000000F2
:040000050800023DB0
:00000001FF
